:020000040800F2
:1000000068B70020450100088D1C00081F18000873
:10001000891C0008171000083F3500080000000088
:100020000000000000000000000000005124000853
:1000300015150008000000004D1F00086525000888
:100040005F0100085F0100085F0100085F01000810
:100050005F0100085F0100085F0100085F01000800
:100060005F0100085F010008A11500085F0100089A
:100070005F0100085F0100085F0100085F010008E0
:100080005F0100085F0100085F0100085F010008D0
:100090005F0100085F0100085F0100085F010008C0
:1000A0005F0100085F0100085F0100085F010008B0
:1000B000E126000815280008CD2800085F01000887
:1000C0005F0100085F0100085F0100085F01000890
:1000D0005F010008D530000895310008193200088A
:1000E0005F0100085F0100085F0100085F01000870
:1000F0005F0100085F0100085F0100085F01000860
:100100005F0100085F0100085F0100085F0100084F
:10011000712E0008F92F00085F0100085F01000838
:100120005F0100085F0100085F0100085F0100082F
:10013000DFF80CD000F0F6FB00480047E55000085F
:1001400068B700200648804706480047FEE7FEE7FC
:10015000FEE7FEE7FEE7FEE7FEE7FEE7FEE7FEE777
:100160006925000831010008A0F14101192900D8D2
:100170002030704740EA01039B0703D009E008C91B
:10018000121F08C0042AFAD203E011F8013B00F85C
:10019000013B521EF9D27047D2B201E000F8012BA8
:1001A000491EFBD270470022F6E710B513460A46F7
:1001B00004461946FFF7F0FF204610BDCAB2401EA4
:1001C00010F8011F8A4202D00029F9D1002070479F
:1001D000421C10F8011B0029FBD1801A704710B592
:1001E000002200E0521C835C8C5CA34201D1002BF6
:1001F000F8D1D8B2E1B2401A10BD30B504460020A3
:10020000034600E05B1C934203D2E05CCD5C401BE4
:10021000F8D030BD034611F8012B00F8012B002A5D
:10022000F9D11846704730B505460020034600E076
:100230005B1C934205D2EC5CC85C201A01D1002CF7
:10024000F6D130BDF0B480EA0102D40F4200B2EB27
:10025000410F02D20246084611464A0042D0C30D61
:10026000DDB2C1F3C752AD1A202D35DAC1F3160144
:1002700041F4000204B15242C5F1200602FA06F12F
:100280002A411044B3EBD05F23D0C4B1012DA0EBC1
:10029000C35009DCF0BC4FF0004202EAC352DBB2AB
:1002A00000F5000000F0B5BA400000F1807000EBEE
:1002B000C350A0F1807040EAD170490009E04908BC
:1002C00041EAC071A0EBC35000F50000400800EB0C
:1002D000C350F0BC00F094BA6142012202EB41012C
:1002E000001BF6E7F0BC704781F00041AAE780F000
:1002F0000040A7E780EA010210B502F00043400089
:1003000022D04A001FD0010E01EB1261C0F356004B
:10031000C2F3560240F4000042F40002A0FB0220A7
:1003200000047F39140400D0401C50EA124001D46C
:100330004000491EC2B20C0604EBD010401C40081D
:10034000802A02D003E0002010BD20F00100002927
:1003500000DA0020184310BD30B480EA010202F038
:10036000004530F0004221F0004013D090B1C30DA1
:10037000D40DC2F31601C0F31600E41A41F40001D3
:1003800040F400027D34914201D3641C00E0490036
:10039000002C02DA30BC002070474FF4000000232C
:1003A000914201D3891A034340084FEA4101F7D132
:1003B00051B1914202D14FF0004105E002D24FF01D
:1003C000010101E06FF0010103EBC450284430BC8F
:1003D00000F016BA2DE9FE4F804681EA0300C00FF7
:1003E0000C46009021F0004123F00045B8EB0200DC
:1003F000A94105D24046214690461C460B4602467E
:1004000023F00040104347D0270DC7F30A00C3F381
:100410000A510290401A019040286BDAC3F313008E
:1004200040F4801B0098924620B10023D2EB030ACF
:1004300063EB0B0B01985946C0F14002504600F0A7
:10044000AEF906460D4650465946019A00F0C6F9E7
:1004500010EB08006141002487EA115284EAE77337
:100460001A4340D0009A62B3019A012A4FEA075218
:1004700015DC001B61EB02014FF0004202EA07525B
:10048000CDE90042001C41F5801132462B4600F0B8
:10049000FBF903B0BDE8F08F40462146F9E7001BA9
:1004A00061EB0201001C41F5801300185B4120182C
:1004B000A2F5001747EB030140EAD570B6196D416C
:1004C00011E06D084FEA360645EAC0754FEA07525B
:1004D000001B61EB0201001C41F5801149084FEA45
:1004E00030000019514132462B4603B0BDE8F04FB1
:1004F00000F0BDB90098012240000023D0EB0202B9
:1005000063EBE073009821464FEAE074B8EB00001B
:1005100061EB0401E9E783F000435BE781F0004110
:1005200058E72DE9F04D81EA030404F0004B21F077
:10053000004514464FF0000A23F0004150EA05023E
:1005400020D054EA01021DD0C5F30A570246C5F374
:100550001303C1F31300C1F30A5640F4801543F4AA
:100560008013A7EB0608101BD64608F2FD3873EB84
:10057000050002D308F1010801E092185B41B8F1CF
:10058000000F03DA00200146BDE8F08D00204FF493
:100590008011064684460EE0171B73EB050705D352
:1005A000121B63EB050306434CEA010C49084FEAB2
:1005B000300092185B4150EA0107EDD152EA030086
:1005C00012D082EA040083EA0501084305D0101B1B
:1005D000AB4106D20122002306E000224FF0004387
:1005E00002E06FF0010253101AEB06004CEB0851C9
:1005F00010EB0A0041EB0B01BDE8F04D00F037B9FC
:1006000096230022114600F004B90EB5C10F80EA0E
:10061000E0700844CA07002140F233438DE80E0021
:100620000A460B4600F030F903B000BD0EB540F2AB
:10063000334102910021CDE900110A460B4600F03A
:1006400023F903B000BD00F0004220F00040C10DCE
:10065000C0F3160040F400007F2901DA0020704743
:10066000962903DCC1F19601C84001E09639884023
:10067000002AF4D04042704770B5C1F30A5201F02D
:1006800000450024C1F3130140F2FF3341F480110F
:100690009A4201DA002070BD40F233439A42A2F23E
:1006A000334203DC524200F089F800E090402C43D2
:1006B000F1D0404270BD00F0004230F000400AD05E
:1006C000C10D01F56071C0F3160042EA0151C20884
:1006D00040071143704700200146704730B500299C
:1006E00004DB4FF00044404264EB0101002B04DBCB
:1006F0004FF00044524264EB0303994208BF90421A
:1007000030BD000001F0004330B421F0004150EA58
:10071000010206D00A0DA2F56072C1F31301002A8E
:1007200002DC30BC00207047440F44EAC104C10021
:10073000E01830BC00EBC25000F062B82DE9F05F69
:100740000546002092469B46884606468146402440
:100750001BE0284641464746224600F02FF8534604
:100760005A46C01A914110D311461846224600F04D
:1007700016F82D1A67EB01084F462246012000218A
:1007800000F00DF817EB00094E41201EA4F1010402
:10079000DFDC484631462A464346BDE8F09F202A22
:1007A00004DB203A00FA02F1002070479140C2F1C8
:1007B000200320FA03F3194390407047202A04DBFA
:1007C000203A21FA02F00021704721FA02F3D040CA
:1007D000C2F120029140084319467047202A06DBE7
:1007E000CB17203A41FA02F043EAE07306E041FAFF
:1007F00002F3D040C2F120029140084319467047ED
:100800000029A8BF7047401C490008BF20F0010024
:10081000704710B4B0FA80FC00FA0CF050EA010402
:1008200004BF10BC704749B1CCF1200421FA04F494
:1008300011FA0CF118BF012121430843A3EB0C016D
:10084000CB1D4FEA00614FEA102042BF002010BCD0
:10085000704700EBC35010440029A4BF10BC704780
:10086000401C490008BF20F0010010BC704710B5C3
:10087000002B08DA401C41F1000192185B411A4339
:1008800001D120F0010010BD2DE9F04D92469B46AC
:1008900011B1B1FA81F202E0B0FA80F22032904652
:1008A000FFF77DFF04460F4640EA0A0041EA0B01CC
:1008B00053465A46084313D0114653EA010019D053
:1008C000C8F140025046FFF779FF05460E465046F4
:1008D00059464246FFF763FF084305D0012004E074
:1008E00020463946BDE8F08D0020054346EAE07613
:1008F0002C4337430A986305E40AA0EB0800002262
:10090000FD0A44EA47540A3002D500200146E9E7CF
:10091000010510196941DDE9084500196941BDE883
:10092000F04DA4E7064C074D06E0E06840F00103F7
:1009300094E8070098471034AC42F6D3FFF7FCFB6D
:100940002CAC00084CAC000870B58C1810F8015B9A
:1009500015F0070301D110F8013B2A1106D110F858
:10096000012B03E010F8016B01F8016B5B1EF9D15C
:100970002B0705D40023521E0DD401F8013BFAE7E2
:1009800010F8013BCB1A921C03E013F8015B01F84D
:10099000015B521EF9D5A142D8D3002070BD0000E2
:1009A00000B58BB00F4800F0EBFC0F4800900F48EB
:1009B00001900020029002200390002004908020EB
:1009C0000590400006908000079020200890C0010C
:1009D000099000200A906946024800F07BFD0BB0A8
:1009E00000BD0000080002404C240140A800002087
:1009F00008B50121084601F0B7FA01214FF405704E
:100A000001F0E2FA0220ADF8000000208DF80300AA
:100A10006946074800F066FE0120ADF8000000209E
:100A20008DF803006946034800F05CFE08BD000035
:100A3000001001400008014010B5FFF7D9FFFFF793
:100A4000AFFF00F00DF80121034800F08DFC0121FB
:100A5000024800F0D0FA10BD080002400024014016
:100A600000B585B0204800F0FBF90020009001207F
:100A70008DF804008DF805004FF4602002900020EE
:100A8000039002208DF810006946174800F02AFAFA
:100A90004FF4404001F05CFA072301220021124884
:100AA00000F048FA072302220B210F4800F042FA17
:100AB00001210D4800F0C9F901210B4800F0BAF9F5
:100AC000094800F093FA00BF074800F001FA002837
:100AD000FAD1054800F09AFA00BF034800F0EEF999
:100AE0000028FAD105B000BD002401402DE9FC5FCB
:100AF0004FF0000BAD480088AD49097801EB41018A
:100B0000AC4A42F82100A9484088A949097801EB7C
:100B1000410102EB81014860A5480078401CA449CE
:100B2000087008460078032875DB4FF0010A15E0CD
:100B3000A04800680AEB4A019E4A52F82110084476
:100B400011460860084640680AEB4A0102EB810141
:100B500049680844114648600AF1010ABAF1030FD6
:100B6000E6DB9448006894490968084491490860A4
:100B7000084640689049496808448E4948600846DC
:100B8000406880088C4948604868FFF74FFD02467E
:100B90000B46CDE9000100208849FFF7C2FC8046E2
:100BA0000022874BFFF7B7FC06460022854BFFF774
:100BB000B8FC0446FFF7A6FD834988608868FFF704
:100BC0007AFD0446814A824BFFF788FD48D27E4970
:100BD0008868FFF770FD04467E4A7F4BFFF77EFD75
:100BE0002AD279498868FFF766FD04467B4A7C4B28
:100BF000FFF774FD02D24FF0010BCEE07249886816
:100C0000FFF759FD0446774A774BFFF767FD03D29C
:100C10004FF0020BC1E0C6E06B498868FFF74BFD5F
:100C20000446724A724BFFF759FD02D24FF0030B94
:100C3000B3E04FF0040BB0E063498868FFF73BFD79
:100C40008046644A644BFFF769FC0646694A6A4B72
:100C5000FFF767FC0446FFF70FFD00F1050B9CE072
:100C600059498868FFF727FD0446644A644BFFF73B
:100C700035FD43D254498868FFF71DFD0446554AA7
:100C80005242604BFFF72AFD02D24FF0090B84E07D
:100C90004D498868FFF70FFD04464FF033325A4B39
:100CA000FFF71CFD15D248498868FFF704FD804610
:100CB000484A5242534BFFF731FC06464F4A5242D4
:100CC000524BFFF72EFC0446FFF7D6FC00F10A0B4F
:100CD00063E03D498868FFF7EEFC80464FF0333211
:100CE000494BFFF71BFC0646424A494BFFF719FCEC
:100CF0000446FFF7C1FC00F10E0B4EE03249886854
:100D0000FFF7D9FC0446334A424BFFF7E7FC13D206
:100D10002D498868FFF7CFFC8046384A384BFFF7EB
:100D2000FDFB06463C4A3D4BFFF7FBFB0446FFF745
:100D3000A3FC00F1140B30E023498868FFF7BBFCEB
:100D40000446374A374BFFF7C9FC13D21E4988685F
:100D5000FFF7B1FC80461F4A2E4BFFF7DFFB06462C
:100D6000314A324BFFF7DDFB0446FFF785FC00F10B
:100D7000280B12E014498868FFF79DFC0646284AB4
:100D8000284BFFF7CBFB0446274A294BFFF7C9FB4B
:100D90008046FFF771FC00F1320B584609F080FEE7
:100DA000002003490870BDE8FC9F0000A800002057
:100DB000A700002078A1002058A100200000B0402A
:100DC0000000F03F0000344028A10020C3F5285C5B
:100DD0008FC2D53FE17A14AE47E1DA3FEC51B81E3D
:100DE00085EBE13F5C8FC2F5285CDF3FCDCCCCCCFE
:100DF000CCCCDC3F7B14AE47E17A943F48E17A14D7
:100E0000AE47D13FB81ED53F3333D33F51B87E3FB5
:100E1000E17A743F47E1CA3FFA7E6ABC7493683F47
:100E200052B81E85EB51C83FFCA9F1D24D62603F1C
:100E30004D62503F21B1826842F00102826003E0BE
:100E4000826822F001028260704721B1826842F418
:100E50008072826003E0826822F480728260704750
:100E600010B504461248844208D10121401501F012
:100E7000BBF80021601501F0B7F817E00D48844277
:100E800008D10121001501F0AFF80021201501F073
:100E9000ABF80BE00848844208D10121C80301F0F7
:100EA000A3F800214FF4004001F09EF810BD0000AF
:100EB0000024014000280140003C01400146002080
:100EC0008A6802F004020AB1012000E000207047A5
:100ED000014600208A6802F008020AB1012000E001
:100EE0000020704730B502460020002350680F4CA8
:100EF00020400D790C6844EA052420435060906836
:100F00000B4C2040D1E902542C434D7944EA45046E
:100F100020439060D06A20F470000C7C641EE4B220
:100F2000234340EA0350D06230BD0000FFFEF0FFD3
:100F3000FDF7F1FFF0B504460D4600200021092D14
:100F400011DDE068A5F10A0606EB4607072606FA5A
:100F500007F18843A5F10A0606EB460603FA06F1F7
:100F60000843E0600CE0206905EB4507072606FA18
:100F700007F1884305EB450603FA06F108432061B3
:100F8000072A0FDA606B561E06EB86071F2606FA45
:100F900007F18843561E06EB860605FA06F108435C
:100FA000606322E00D2A0FDA206BD61F06EB86075E
:100FB0001F2606FA07F18843D61F06EB860605FAB8
:100FC00006F10843206310E0E06AA2F10D0606EB8B
:100FD00086071F2606FA07F18843A2F10D0606EBE5
:100FE000860605FA06F10843E062F0BD816841F02B
:100FF00008018160704721B1826842F4A0028260DA
:1010000003E0826822F4A00282607047816841F0A8
:1010100004018160704700BFFEE708B527208DF806
:10102000000004208DF8010005208DF80200012049
:101030008DF80300684600F031FE08BD10B50121AF
:10104000092000F0C1FF0121880400F09DFF10BDC0
:101050000121044A117208B1A02100E00021014AD7
:101060005172704700A2002008B54FF48060ADF8BF
:10107000000003208DF8020018208DF80300694657
:10108000074800F02FFB4FF40060ADF8000004208B
:101090008DF803006946024800F024FB08BD0000FB
:1010A000000C01400121034A9172010AD1721073B0
:1010B0007047000000A2002002460020012104E049
:1010C000535C0344D8B24B1CD9B20829F8DBC0F1F9
:1010D000FF00431CD8B2704710B504460922002116
:1010E000214804F0E4F809201F4911394873002011
:1010F0008873C873FF20487401211B48113881741C
:10110000062C27D2DFE804F02603080D161D8621E1
:1011100015481138C1741EE0872113481138C17475
:1011200019E0882110481138C17481790175C1799D
:10113000417510E079210C481138C174417A01756C
:1011400009E0992108481138C174C17A0175017B01
:10115000417500E000BF00BF0348FFF7ADFF024943
:101160001139487610BD000011A200201FB51048AB
:1011700002F0D6F84FF4165000900020ADF80400AD
:10118000ADF80600ADF80800ADF80C000C20ADF885
:101190000A006946064802F061F9012240F2255131
:1011A000034802F035F90121014802F0A3F81FBD00
:1011B0000048004010B52A220021064804F077F8C4
:1011C000FFF73CFFFFF729FFFFF74EFFFFF7CEFFCA
:1011D00010BD000000A2002010B500242548407872
:1011E000401C24494870084640780A2803DB002048
:1011F0004870012008701F48007C002839D11D4824
:10120000807A012804D100201A498872052422E03E
:101210001848007A012804D10020164908720424D5
:1012200019E014484079012804D10020114948717F
:10123000032410E00F480079012804D100200D4953
:101240000871022407E00B480078012803D1002030
:10125000084908700124002C0BDD012005490874A1
:101260002046FFF739FF012240F22771024802F0C1
:10127000CFF810BD00A200200048004008B535207E
:101280008DF8000004208DF8010006208DF8020082
:1012900001208DF80300684600F000FD08BD10B580
:1012A0000121312000F090FE0121080500F06CFEC4
:1012B00010BD000008B54FF48050ADF800000320C9
:1012C0008DF8020018208DF803006946064800F0EA
:1012D00009FA0420ADF800008DF8030069460348C0
:1012E00000F000FA08BD00000010014000140140A9
:1012F00010B5FFF7D4FFFFF7C1FFFFF7DBFF00F0EA
:1013000001F810BD1FB5104802F00AF84FF416504E
:1013100000900020ADF80400ADF80600ADF808001C
:10132000ADF80C000C20ADF80A006946064802F042
:1013300095F8012240F22551034802F069F8012195
:10134000014801F0D7FF1FBD0050004030B50246F4
:1013500012F8010B012304E012F8014B60405C1C01
:10136000E3B28B42F8DB30BD21B1026842F00102EA
:10137000026004E002684FF6FE731A400260704794
:1013800001684FF6FE72114001600021016041606A
:101390008160C1604B49884208D14A49083949688F
:1013A00041F00F01474A083A51608AE0454914313B
:1013B000884208D143490839496841F0F001414A5F
:1013C000083A51607DE03F492831884208D13D49C3
:1013D0000839496841F470613A4A083A516070E04E
:1013E00038493C31884208D136490839496841F4C6
:1013F0007041344A083A516063E0324950318842C2
:1014000008D130490839496841F470212D4A083A19
:10141000516056E02B496431884208D12949083986
:10142000496841F47001274A083A516049E025496A
:101430007831884208D123490839496841F0706100
:10144000204A083A51603CE01F49884206D1011FFA
:10145000096841F00F01021F116032E01A4914318E
:10146000884208D11849091F096841F0F001164A5D
:10147000121F116025E014492831884208D1124911
:10148000091F096841F470610F4A121F116018E0CA
:101490000D493C31884208D10B49091F096841F4C4
:1014A0007041094A121F11600BE007495031884210
:1014B00007D10549091F096841F47021024A121F2A
:1014C0001160704708000240080402400146486865
:1014D00080B2704710B50022026847F6F0739A4355
:1014E0000C6A8B6823430C6923434C6923438C6942
:1014F0002343CC6923434C6A23438C6A23431A4316
:101500000260CB6843600B6883604B68C36010BDAA
:1015100041607047704700213FE000BF00BF00BF3F
:1015200000BF00BF00BF00BF00BF00BF00BF00BFC3
:1015300000BF00BF00BF00BF00BF00BF00BF00BFB3
:1015400000BF00BF00BF00BF00BF00BF00BF00BFA3
:1015500000BF00BF00BF00BF00BF00BF00BF00BF93
:1015600000BF00BF00BF00BF00BF00BF00BF00BF83
:1015700000BF00BF00BF00BF00BF00BF00BF00BF73
:1015800000BF00BF00BF00BF00BF00BF00BF00BF63
:1015900000BF00BF00BF00BF491C8142BDDB7047D8
:1015A00010B5102000F002F810BD000001490860DD
:1015B000704700001404014010B502460020521C80
:1015C000002305E014780444E0B2521C5C1CE3B232
:1015D0008C1E9C42F6DCC443641CE0B210BD08B50E
:1015E0001D208DF8000002208DF801008DF802000A
:1015F00001208DF80300684600F050FB08BD000094
:1016000008B50121042000F0DFFC8020ADF80000C7
:1016100003208DF8020004208DF80300694602487B
:1016200000F060F808BD00000008014000B585B07A
:10163000FFF7E6FFFFF7D3FF00F00EF8684600F073
:10164000E3FC4FF434710098B0FBF1F001494860BD
:1016500005B000BD9CA1002000B587B0012102208B
:1016600000F092FC1E4801F04FF94FF6FF70ADF804
:10167000140040F2CF20ADF810000020ADF81600A5
:10168000ADF8120004A9164801F0C2FA0420ADF822
:1016900004000220ADF806000120ADF8080000208B
:1016A000ADF80A00ADF80C0001A90D4801F040FAB0
:1016B00060210B4801F07AFA0421094801F088FA08
:1016C0008021074801F07BFA0121054801F00FF95C
:1016D00001220421024801F022FA07B000BD0000F7
:1016E000000400402DE9F0410246002500260020BC
:1016F00000230024002791F803C00CF00F0591F897
:1017000003C00CF0100CBCF1000F03D091F802C024
:101710004CEA050591F800C0BCF1000F31D0146807
:1017200000202BE04FF0010C0CFA00F3B1F800C0E0
:101730000CEA03069E4220D183004FF00F0C0CFAF6
:1017400003F7BC4305FA03FC4CEA040491F803C018
:10175000BCF1280F06D14FF0010C0CFA00FCC2F8C6
:1017600014C00AE091F803C0BCF1480F05D14FF056
:10177000010C0CFA00FCC2F810C0401C0828D1D3A0
:101780001460B1F800C0BCF1FF0F34DD54680020D4
:101790002EE000F1080C4FF0010808FA0CF3B1F844
:1017A00000C00CEA03069E4221D183004FF00F0CCB
:1017B0000CFA03F7BC4305FA03FC4CEA040491F865
:1017C00003C0BCF1280F05D100F1080C08FA0CF891
:1017D000C2F8148091F803C0BCF1480F07D100F1A2
:1017E000080C4FF0010808FA0CF8C2F81080401CF1
:1017F0000828CED35460BDE8F08102460020D368AB
:101800000B400BB1012000E00020704741617047A0
:10181000016170470AB1016100E04161704700BF9A
:10182000FEE700000C48806940F008000A49886122
:1018300048150A4908604010086008480C380068DC
:1018400020F0FF0005490C3908600846006840F0A8
:10185000550008607047000000100240100C014065
:101860002DE9F04104460E4617464FF000080020CF
:1018700020704FF400702249086080251EE04FF46C
:1018800080701F4908600120FFF745FE384600F0D0
:1018900079F880460320FFF73EFE194808380068B3
:1018A00000F4007010B12078284320704FF0807051
:1018B000134908600120FFF72EFE6D10002DDEDCBD
:1018C00026B94FF000700E49086003E04FF4007035
:1018D0000B4908600120FFF71EFE4FF48070084995
:1018E00008600520FFF717FE4FF08070044908607C
:1018F000C01308601420FFF70EFE4046BDE8F081DB
:10190000100C014010B54FF400700D490860012023
:10191000FFF701FE4FF48070094908600120FFF7CE
:10192000FAFD4FF00070064908600A20FFF7F3FD4A
:101930004FF08070024908600A20FFF7ECFD10BDEF
:10194000100C014010B54FF080700D490860012067
:10195000FFF7E1FD4FF00070094908600120FFF733
:10196000DAFD4FF48070064908600A20FFF7D3FDC6
:101970004FF40070024908600A20FFF7CCFD10BD4B
:10198000100C014070B5044600250AE02000A4F1C7
:101990000101CCB201D1042070BD4FF47A70FFF781
:1019A000BAFD0448006800F480700028EED0284694
:1019B000F2E70000080C014070B5054600268024BF
:1019C0001DE004EA050020B94FF0007019490860D5
:1019D00003E04FF40070174908600120FFF79BFDFA
:1019E0004FF48070134908600520FFF794FD4FF015
:1019F0008070104908600120FFF78DFD6410002CF5
:101A0000DFDC4FF400700B490860401008600120D3
:101A1000FFF781FD07480838006800F4007000B146
:101A200001264FF08070034908601420FFF773FD12
:101A3000304670BD100C014008B534208DF8000010
:101A400002208DF8010001208DF802008DF80300BE
:101A5000684600F023F908BD10B50121112000F0FF
:101A6000B3FA0121C80400F08FFA10BD08B54FF495
:101A70008060ADF8000003208DF8020018208DF87A
:101A8000030069460748FFF72DFE4FF40060ADF8EC
:101A9000000004208DF8030069460248FFF722FE8B
:101AA00008BD00000010014010B5FFF7D5FFFFF79B
:101AB000C3FFFFF7DBFF00F001F810BD1FB51048B2
:101AC00001F02EFC4FF4964000900020ADF8040089
:101AD000ADF80600ADF80800ADF80C000C20ADF82C
:101AE0000A006946064801F0B9FC012240F225517E
:101AF000034801F08DFC0121014801F0FBFB1FBDF3
:101B0000004C004010B52B484078012851D129489D
:101B100090F87C03802807DB264890F87F03422852
:101B200044D103F097F941E0224890F87C1390F8F3
:101B3000C40181423AD12048006828B31E48006899
:101B40000079022832D103201B490968087119481D
:101B500090F87F03AA2829D1164890F8800301281D
:101B600007D115480068C1884FF4001003F03AFA15
:101B70001CE0104890F88003022806D10E48006847
:101B8000C1880E4803F02EFA10E00A4890F880034E
:101B9000032804D0074890F88003082806D1064897
:101BA0000068C1884FF4800003F01CFA002001494E
:101BB000487010BD36A200208800002001002000DF
:101BC00010B52CE019480068007960B9174A12680E
:101BD0001189164A1268D06801F0EEF90120134904
:101BE000096808711FE0114800680079012804D0D5
:101BF0000E480068007902280FD10C48006840792F
:101C0000401C0A49096848710848006840790A2858
:101C100002DD02F091FF02E005E002F08DFF0348D3
:101C200000680028CED100BF10BD00008800002051
:101C300008B50121102000F0C7F910208DF803002D
:101C400003208DF802004FF40070ADF800006946E3
:101C50000448FFF747FD4FF400710248FFF7D8FD35
:101C600008BD00000010014010B5044600212046C8
:101C7000FFF77AFB4FF480612046FFF749FC012112
:101C80002046FFF771FB10BD00BFFEE7704710B59F
:101C90004FF4A06000F03AF810BD000070B50021CC
:101CA00000230F22C47804B3154C246804F4E064C4
:101CB000C4F5E064210AC1F10403CA40447804FA7F
:101CC00003F184781440214309010E4C0678A15594
:101CD000047804F01F050124AC4005786D11AD00B7
:101CE00005F1E025C5F8004109E0047804F01F057E
:101CF0000124AC40044D0678761145F8264070BDAD
:101D00000CED00E000E400E080E100E00249014366
:101D1000024A1160704700000000FA050CED00E077
:101D2000024A0A400243024B1A60704780FFFF1FBD
:101D300008ED00E010B508480068401C064908603E
:101D400008460068052806DB00F060F800F0AEF8F1
:101D500000200149086010BDCC0000200D488069BA
:101D600040F004000B4988610B48006820F0F00047
:101D7000094908600846006840F0100008600846FD
:101D8000006820F0706008600846006840F08070CD
:101D900008607047001002400008014005480068D4
:101DA00020F0F000034908600846006840F0800019
:101DB00008607047000801400548006820F0706026
:101DC000034908600846006840F0006008607047FA
:101DD000000801400548006820F0F0000349086051
:101DE0000846006840F01000086070470008014095
:101DF0000548006820F070600349086008460068E4
:101E000040F080700860704700080140FEB5002077
:101E1000009001900290FFF7DDFF02202249086048
:101E2000962002F095FD00242EE04FF4005600208D
:101E30004DF82400002524E002201B49091D0860FC
:101E4000012002F085FD022017490860012002F000
:101E50007FFDFFF7A3FF082002F07AFD1248083843
:101E6000006800F0020020B15DF8240030434DF816
:101E70002400760802200C49091D0860FFF7AAFF1C
:101E80006D1C0E2DD8DB641C022CCEDB0220064913
:101E9000091D0860012002F05BFDFFF77FFF00983D
:101EA00004F0C2F8FEBD000010080140FEB500209D
:101EB000009001900290FFF79BFF402022490860AC
:101EC000962002F045FD00242EE04FF4005600203D
:101ED0004DF82400002524E040201B49091D08601E
:101EE000012002F035FD402017490860012002F072
:101EF0002FFDFFF761FF082002F02AFD1248083885
:101F0000006800F0400020B15DF8240030434DF837
:101F10002400760840200C49091D0860FFF768FF7F
:101F20006D1C0E2DD8DB641C022CCEDB4020064934
:101F3000091D0860012002F00BFDFFF73DFF00982E
:101F400004F0D6F8FEBD0000100801407047000004
:101F500001460020034A506820F440400843506086
:101F6000704700000010024029B1064A526902433E
:101F7000044B5A6104E0034A52698243014B5A619F
:101F8000704700000010024029B1064AD26902439E
:101F9000044BDA6104E0034AD2698243014BDA61FF
:101FA000704700000010024029B1064A126902433E
:101FB000044B1A6104E0034A12698243014B1A611F
:101FC000704700000010024029B1064A926902439E
:101FD000044B9A6104E0034A92698243014B9A617F
:101FE000704700000010024029B1064AD26802433F
:101FF000044BDA6004E0034AD2688243014BDA60A2
:10200000704700000010024030B50021002200247B
:1020100000232D4D6D6805F00C0121B1042905D078
:10202000082923D105E0294D056022E0274D0560F0
:102030001FE0254D6D6805F47012234D6D6805F4A1
:102040008034022505EB92421CB9214D55430560B1
:102050000BE01D4D6D6805F400351DB11C4D554359
:10206000056002E0194D5543056002E0174D05601B
:1020700000BF00BF144D6D6805F0F0010909154D52
:102080006B5C0568DD4045600F4D6D6805F4E061EF
:10209000090A104D6B5C4568DD4085600A4D6D682E
:1020A00005F46051C90A0B4D6B5C4568DD40C560A5
:1020B000054D6D6805F44041890B074D6B5CC568A3
:1020C000B5FBF3F5056130BD0010024000127A0047
:1020D00000093D00470100205701002030B50246AD
:1020E0000B46FF20002113E0555C684008240BE0FC
:1020F00000F0800525B1312585EA4005E8B201E010
:102100004506280E651EECB2002CF1DC4D1CE9B230
:102110009942E9DB30BD000070B504462046FEF769
:102120006FFA06460349FEF7E5F805460249FEF751
:1021300013F970BD0000C84200FF7F472DE9F04150
:1021400004462046FEF75CFA07460649FEF7D2F839
:1021500006460549FEF700F905460449FEF7C4F8AE
:10216000BDE8F08100002F4300FF7F4700003442AC
:10217000F0B505460E46144631462846FFF7AEFF39
:102180000746A74201D00220F0BD0020FCE710B5B1
:102190000446FFF747FB204600F066F84FF4FA705C
:1021A000FFF7B9F90021084600F080F843F2B0606B
:1021B000FFF7B1F910BD2DE9FC4105460E46174663
:1021C0003A46002101A8FFF74BFB044634B9002230
:1021D00011460DF10500FFF743FB04462CB9002220
:1021E00031466846FFF73CFB044634B99DF80020B1
:1021F000022101A8FFF7BCFF04469DF805009DF8E9
:10220000041040EA012028802046BDE8FC817CB50E
:1022100005460E4600F0ECF8044624B94FF4604041
:1022200000F0F6F8044614B900F0D6F804462CB9CC
:102230000022114601A8FFF7BEFF04462CB9002278
:1022400001216846FFF7B7FF04464CB9BDF804000A
:10225000FFF774FF2860BDF80000FFF75DFF3060F6
:1022600000F0D2F820467CBD4106090E044A1170E8
:102270001146097841F00101024A117070470000CF
:10228000D0000020D100002010B500F0B1F80446C5
:1022900043F2A20000F0BCF8044300F0B5F81CB90A
:1022A0004FF4FA70FFF737F9204610BD70B50646B7
:1022B0000D4600F09DF80446002C72D1002E57D038
:1022C000012E2BD0022E7FD1052D22D2DFE805F082
:1022D00003090F151B0042F22F0000F099F8044388
:1022E0001AE042F22D1000F093F8044314E042F299
:1022F0002B2000F08DF804430EE042F2293000F06C
:1023000087F8044308E042F22A7000F081F80443A1
:1023100002E044F0800400BF00BF58E0052D22D247
:10232000DFE805F003090F151B0042F2240000F05E
:102330006FF804431AE042F2261000F069F80443F3
:1023400014E042F2202000F063F804430EE042F271
:10235000223000F05DF8044308E042F2217000F002
:1023600057F8044302E044F0800400BF00BF2EE0B1
:10237000052D24D2DFE805F003090F171D0042F2F6
:10238000320000F045F804431CE042F2301000F047
:102390003FF8044316E042F2362000F039F80443D7
:1023A00010E015E010E042F2343000F031F8044360
:1023B00008E042F2377000F02BF8044302E044F0EA
:1023C000800400BF00BF02E044F0800400BF00BFF3
:1023D00000F01AF8204670BD10B5FFF793FA0348D5
:1023E0000078FFF7E9FA0446204610BDD10000202E
:1023F00010B5FFF787FA03480078FFF7DDFA0446C7
:10240000204610BDD000002010B5FFF79BFA10BD8C
:1024100070B504462012FFF7CFFA0546E0B2FFF789
:10242000CBFA0543284670BD10B50849081FFFF7D1
:10243000EEFE48B100210548283841628162FFF76D
:1024400023FF4420FFF7A3FE10BD000050A1002091
:10245000704710B500F002F810BD00000CB5002068
:10246000019000903348006840F4803031490860A2
:1024700000BF3048006800F4003000900198401C14
:102480000190009818B90198B0F5A06FF1D12948D2
:10249000006800F4003010B10120009001E000203D
:1024A00000900098012843D12348006840F01000B4
:1024B000214908600846006820F0030008600846CB
:1024C000006840F0020008601A48406819494860F6
:1024D0000846406848600846406840F480604860AC
:1024E0000846406820F47C1048600846406840F484
:1024F000E81048600846006840F08070086000BF3F
:102500000C48006800F000700028F9D009484068C5
:1025100020F00300074948600846406840F0020088
:10252000486000BF0348406800F00C000828F9D15B
:102530000CBD00000010024000200240042808D119
:102540004FF0E021096941F004014FF0E0221161F0
:1025500007E04FF0E021096921F004014FF0E0228B
:10256000116170477047000010B51348006840F0D3
:1025700001001149086008464068104908400E49AA
:102580004860084600680E4908400B490860084644
:10259000006820F4802008600846406820F4FE00AF
:1025A00048604FF41F008860FFF753FF4FF0006052
:1025B0000449086010BD0000001002400000FFF850
:1025C000FFFFF6FE08ED00E0F0B50C4615460022D0
:1025D0000021068C4FF6FE773E400684028B018C6C
:1025E0004FF60C7632407E1C06EA03162E43324329
:1025F000104EB0420ED0104EB0420BD0B0F1804F12
:1026000008D00E4EB04205D00D4EB04202D00D4E55
:10261000B04206D14FF6FD76314044F00106314319
:1026200005E04FF6F576314044F001063143028370
:102630000184F0BD002C0140003401400004004042
:1026400000080040000C0040F0B50C461546002282
:1026500000210026078C4FF6EF7C07EA0C07078461
:10266000028B018C4FF6FF7707EA041640F6FF470E
:102670003A404FF6FF7707EA03373A434FF6FF77C2
:1026800007EA05273A43114FB8420ED0104FB8421F
:102690000BD0B0F1804F08D00E4FB84205D00E4F8E
:1026A000B84202D00D4FB84206D14FF6DF7739401D
:1026B00046F01007394305E04FF65F77394044F0A4
:1026C0001007394302830184F0BD0000002C014053
:1026D000003401400004004000080040000C0040AD
:1026E00010B50121880700F009FA002854D0012113
:1026F000880700F0F9F82948007820F00100401C14
:102700002649087026480088401C2549088008464C
:102710000088322808DB002008802048007820F05C
:102720000200801C1D4908701D484088401C1C493F
:10273000488008464088962808DB002048801748D3
:10274000007820F00400001D1449087014488088A7
:10275000401C1349888008468088B0F5FA7F08DB62
:10276000002088800D48007820F0080008300B49D0
:1027700008700B48C088401C0949C8800846C088BA
:10278000B0F57A7F08DB0020C8800448007820F08C
:10279000100010300149087010BD000050000020EA
:1027A000520000201FB501210846FFF7EDFBC820AD
:1027B000ADF8080040F2CF20ADF804000020ADF8DD
:1027C0000A00ADF8060001A94FF0804000F020FAA1
:1027D0000121880700F088F801221146900700F0D7
:1027E0009EF90121880700F082F800214FF0006077
:1027F000FFF796FA1C208DF8000000208DF80100EC
:1028000001208DF802008DF803006846FFF746FAB4
:102810001FBD000070B50421294800F065F8284864
:1028200000F069F927490880254800F061F9254939
:1028300048800846008800283CD00888FDF7E0FE64
:10284000044620494888FDF7DBFE05462146FDF792
:1028500083FD1C4908610888FDF7D2FE044619492A
:102860004868FDF7CDFE05462146FDF775FD154983
:10287000C86008691449FDF73DFD0446FDF7E3FE15
:10288000104988600846806840F24651884203DA61
:1028900008460C49886008E00A48806841F25041C7
:1028A000884202DD0846074988600649886802F0C8
:1028B000D7FF03E0002003490861C86070BD000035
:1028C000000400409CA1002000401C4610B50121DE
:1028D000044800F013F918B10121024800F004F88F
:1028E00010BD000000080040CA430282704721B1B9
:1028F000028842F00102028004E002884FF6FE7373
:102900001A4002807047000010B5044668488442AF
:1029100008D10121C014FFF767FB0021E014FFF785
:1029200063FBC4E0B4F1804F08D101210846FFF7F2
:102930003BFB00210120FFF737FBB8E05D488442F4
:1029400008D101210220FFF72FFB00210220FFF711
:102950002BFBACE05848844208D101210420FFF74A
:1029600023FB00210420FFF71FFBA0E05348844213
:1029700008D101210820FFF717FB00210820FFF7ED
:1029800013FB94E04E48844208D101211020FFF748
:102990000BFB00211020FFF707FB88E04948844229
:1029A00008D101212020FFF7FFFA00212020FFF7A6
:1029B000FBFA7CE04448844208D101214014FFF72F
:1029C00013FB00216014FFF70FFB70E03F488442C7
:1029D00009D10121C804FFF707FB00214FF40020B3
:1029E000FFF702FB63E03A48844209D10121080560
:1029F000FFF7FAFA00214FF48010FFF7F5FA56E0DE
:102A00003448844209D101214805FFF7EDFA00213D
:102A10004FF40010FFF7E8FA49E02F48844208D14C
:102A200001214020FFF7C0FA00214020FFF7BCFA47
:102A30003DE02A48844208D101218020FFF7B4FA02
:102A400000218020FFF7B0FA31E02548844208D108
:102A500001218015FFF7A8FA0021A015FFF7A4FABD
:102A600025E02048844209D101210804FFF7BCFA7F
:102A700000214FF48030FFF7B7FA18E01A4884427B
:102A800009D101214804FFF7AFFA00214FF40030CB
:102A9000FFF7AAFA0BE01548844208D10121880407
:102AA000FFF7A2FA00214FF48020FFF79DFA10BD36
:102AB000002C01400004004000080040000C0040D1
:102AC000001000400014004000340140004C014060
:102AD000005001400054014000180040001C00401C
:102AE00000200040004001400044014000480140F7
:102AF0000146888E70470146088F704730B5024600
:102B0000002000230024158A05EA0103958905EABF
:102B1000010413B10CB1012000E0002030BD1AB156
:102B200083890B43838102E083898B4383817047D0
:102B30002DE9F04105460C4600260127608808B9BA
:102B4000022600E00026A088012801D1022700E02B
:102B500001272088A0B92389A28861882846FFF729
:102B600033FDE188284600F03CF823893A46314697
:102B70002846FFF769FDE188284600F03BF813E09E
:102B80002389A28861882846FFF75EFDE1882846F0
:102B900000F030F823893A4631462846FFF714FD05
:102BA000E188284600F01DF8BDE8F0810A460021C2
:102BB00001894FF68F7319401143018170470289D3
:102BC0004FF67F731A40028102890A4302817047DF
:102BD00002894FF6F8731A40028102890A43028182
:102BE0007047028B4FF6F3731A400283028B0A433D
:102BF00002837047028B4FF2FF331A400283028B2D
:102C00004FF6FF7303EA01231A4302837047000063
:102C1000002202881D4B98420ED01D4B98420BD0CB
:102C2000B0F1804F08D01B4B984205D01A4B984208
:102C300002D01A4B984204D14FF68F731A404B883A
:102C40001A43174B984207D0164B984204D04FF6C0
:102C5000FF431A40CB881A4302808B8883850B88F8
:102C600003850A4B98420BD0094B984208D00E4B73
:102C7000984205D00D4B984202D00D4B984201D19D
:102C80000B7A03860123838270470000002C0140E9
:102C9000003401400004004000080040000C0040E7
:102CA000001000400014004000400140004401407A
:102CB0000048014010B52D480078C0F340000028BE
:102CC00053D02A48007820F002002849087003F009
:102CD00045FD2748006838B1254A12689188244A82
:102CE0001268906800F050FCFEF76AFF21480078F7
:102CF000C0F3401058B11F48007820F020001D4953
:102D0000087003F05DFE4FF4001007F0BFF903F008
:102D100003FE03F075FF03F01BF917480078C0F3BA
:102D2000400070B11448007820F002001249087089
:102D30001248007820F0200020301049087003F07D
:102D40003FFE0E480078C0F3401040B10B480078B9
:102D500020F0200009490870012005F037FE03F03B
:102D60002BFA07F029FAFEF737FA10BD50000020C1
:102D70008000002038000020390000205A00002088
:102D800010B51A480078C0F3C00070B31748007837
:102D900020F008001549087015480068401C1449C7
:102DA00008604FF400711348FEF727FD30B1002290
:102DB0004FF400710F48FEF72DFD04E0012251028F
:102DC0000C48FEF727FD05F0BBF80B4800780028FB
:102DD00009DD09480078401E074908700846007858
:102DE00008B903F0EDFD06F009FE10BD500000200B
:102DF00004000020001001406200002010B50848C7
:102E0000007800F0010048B10548007820F001008A
:102E100003490870FEF78EFF05F0BCF910BD0000F5
:102E20005000002010B508480078C0F3001048B1E9
:102E30000548007820F0100003490870FFF7F4FA05
:102E400003F058FE10BD00005000002010B50748E8
:102E50000078C0F3800038B10448007820F0040006
:102E600002490870FDF742FE10BD0000500000202E
:102E700010B540F225511C4800F0A0FA30B100F026
:102E800039F840F22551184800F025FA40F2277130
:102E9000154800F093FA30B3144800891349C988E3
:102EA00088420DDA1148018900F5E170405C0E4955
:102EB000091D08800D480089401C0C49088112E05A
:102EC00000200A490881C880094800680079012863
:102ED00003D10220064909680871002240F22771D7
:102EE000014800F095FA10BD004C004036A20020C9
:102EF0008800002010B52E480088C4B22D48818873
:102F00000A3044540A388088401C2A498880084680
:102F1000808806281AD2DFE800F01903090F101183
:102F20007E2C02D00020234988803FE07E2C02D0F6
:102F300000202049888039E038E037E01D48817B57
:102F4000407B01EB00201B4948802FE01948808816
:102F5000052822DD174881884088C01C81421CDB7F
:102F6000144841880C3000F031FB12498988491E11
:102F7000104A0A32515C88420CD10E48407848B958
:102F800001200C494870084682880A3100F27A30E4
:102F9000FDF7F0F800200749888006488088B0F5E2
:102FA000DC7F02DB00200349888000BF00BF10BD2A
:102FB000044C004036A2002070B505460C46B4F51E
:102FC000DC7F01DB4FF4DC74224629460748FDF71D
:102FD000D1F80748C480002005490881012240F249
:102FE0002771044800F014FA70BD0000F8A3002017
:102FF00036A20020004C004010B5002440F22551BC
:103000002F4800F0DBF9002853D040F225512C481E
:1030100000F061F92A4800F08DFAC4B229482A4923
:103020000978445428480078401C2749087008460D
:103030000078012804D0022808D0032812D10BE020
:10304000FF2C02D000202049087031E0042C02D06F
:1030500000201D4908702BE0032C02D000201A49E3
:10306000087025E0194800780C2802DB0020174979
:10307000087015480078092819DB09211148FEF766
:103080009BFA04460F48007AA0420DD10D484179C1
:10309000007901EB00200E4908600A48C179807967
:1030A00001EB00200A49486000200749087000BF72
:1030B00000BF40F22771024800F080F910BD000007
:1030C000005000402AA20020E10000205C00002007
:1030D00028A1002010B540F22441254800F06EF9E7
:1030E000F0B1234800F026FA2248FEF7EFF9C0F5C8
:1030F0008060214908800846008801F029FE1F49A8
:1031000008801F48007820F00100401C1C4908700E
:1031100040F22441164800F0DEF81648FEF7A4FD00
:1031200040F22771124800F049F900B315480088B1
:103130001549098888420CDA144812490988405C0C
:103140000B49091D08800F480088401C0D49088064
:103150000DE000200B4908800D48007808B901F007
:10316000B5FC002240F22771014800F051F910BD72
:1031700000380140580002402C000020420000208E
:1031800038000020300000202E000020707C00203D
:10319000A400002010B540F22551194800F00EF9A6
:1031A00030B103F06BFF40F22551164800F093F860
:1031B00040F22771124800F001F900B3124800886C
:1031C0001249098888420CDA11480F490988405C85
:1031D0000B49091D08800C480088401C0A490880DA
:1031E0000DE00020084908800A48007808B901F07D
:1031F00037FC002240F22771014800F009F910BDA8
:103200000044004000380140600000205E000020C3
:1032100060A00020A500002010B540F225512648EE
:1032200000F0CCF828B340F22551234800F053F8C1
:10323000214800F07FF9C1B22048827B1D308154C3
:103240001D38807B401C1D4988730846807B0928F7
:103250000FDB0846807F86280BD1084690F82010A7
:10326000C07F01EB0020154948800846408814497A
:10327000486140F22771104800F0A0F8D8B10F481B
:10328000C07B0E49497B88420CDA0C48C17B113067
:10329000405C0949091D08800848C07B401C07495B
:1032A000C87308E0002240F22771034800F0B0F82C
:1032B00000200249087410BD0048004000A2002010
:1032C00028A1002001F40072B2F5007F00D100BFF8
:1032D000CA430280704710B50022002340F66A14EA
:1032E000A14200D100BF0A1201249440A3B2DC43E2
:1032F000048010BD21B1828942F40052828104E031
:1033000082894DF6FF731A40828170471AB1838A11
:103310000B43838202E0838A8B43838270470000E1
:1033200010B504462048844209D101218803FEF7E4
:103330005BFE00214FF48040FEF756FE32E01B4852
:10334000844209D101214804FEF72EFE00214FF4EA
:103350000030FEF729FE25E01548844209D10121FD
:103360008804FEF721FE00214FF48020FEF71CFEAA
:1033700018E01048844209D10121C804FEF714FE68
:1033800000214FF40020FEF70FFE0BE00A488442B4
:1033900008D101210805FEF707FE00214FF4801037
:1033A000FEF702FE10BD000000380140004400405E
:1033B00000480040004C00400050004070B50246FC
:1033C000002400230025002040F66A16B14200D1F7
:1033D00000BFC1F3421501F01F03012606FA03F3F3
:1033E000012D02D19689334006E0022D02D1168AC2
:1033F000334001E0968A33400C12012606FA04F4A9
:103400001688344013B10CB1012000E0002070BDDB
:10341000F0B50346002400260025002040F66A1778
:10342000B94200D100BF1846C1F3421401F01F0693
:10343000012707FA06F5012C01D10C3004E0022C1B
:1034400001D1103000E014301AB107682F43076033
:1034500002E00768AF430760F0BD00002DE9F047C8
:1034600086B005460E460024A24600BFA1460027AE
:10347000B08900B100BF2F462C8A4CF6FF70044083
:10348000F08804432C82AC894EF6F3100440B088D7
:1034900031890843718908430443AC81AC8A4FF6F3
:1034A000FF400440B0890443AC8201A8FEF7ACFDA4
:1034B0001F48874202D1DDF810A001E0DDF80CA022
:1034C000A88900F4004040B10AEBCA0000EB0A10E2
:1034D00031684900B0FBF1F807E00AEBCA0000EBE5
:1034E0000A1031688900B0FBF1F86420B8FBF0F0F5
:1034F00004012009642101FB1089A88900F400401F
:1035000040B1322000EBC900B0FBF1F000F0070041
:10351000044308E0322000EB09106421B0FBF1F015
:1035200000F00F0004432C8106B0BDE8F0870000D6
:103530000038014001468888C0F30800704700BF8A
:10354000FEE7000070B505460C46B4F5806F01DB60
:103550004FF4806422462946074801F09BFE074845
:103560000480002006490880012240F227710548A6
:10357000FFF74EFF70BD0000707C00202E00002081
:10358000300000200038014070B505460C46B4F507
:10359000806F01DB4FF4806422462946074801F022
:1035A00079FE07480480002006490880012240F285
:1035B00027710548FFF72CFF70BD000060A00020B8
:1035C0005E000020600000200044004030B502464C
:1035D00012F8010B012304E012F8014B60405C1C5F
:1035E000A3B28B42F8DB30BD0FB4084B10B504A971
:1035F00002AA039800F01CF8044602A9002000F07B
:1036000044FA204610BC5DF814FB00008B3A000819
:1036100002E008C8121F08C1002AFAD1704770479B
:10362000002001E001C1121F002AFBD170470000F9
:103630002DE9FF4F8DB00F460546002606E02528F0
:103640000BD0DDE90F1290476D1C761C28780028FE
:10365000F5D111B03046BDE8F08F0024A246A14656
:103660000122EA4900E0044315F8013F203B02FA39
:1036700003F00842F7D128782A2810D06FF02F02E3
:103680002878A0F13001092914D80AEB8A0102EB4D
:10369000410144F0020400EB010A6D1CF0E701CF88
:1036A0005FEA000A03D544F40054CAF1000A44F06A
:1036B00002046D1C28782E2817D115F8010F44F04C
:1036C00004042A280ED06FF02F022878A0F13001D0
:1036D00009290AD809EB890102EB410100EB010934
:1036E0006D1CF2E757F8049B6D1C28786C280FD0EE
:1036F00006DC4C2817D068280DD06A2814D104E0C5
:10370000742810D07A280FD10DE044F400140AE098
:1037100044F4801401E044F440146978814202D1F9
:1037200004F580146D1C6D1C2A786E2A1FD00CDCE9
:10373000632A31D004DC002A8BD0582A11D19FE0B3
:10374000642A68D0692A0CD165E0732A2ED004DC83
:103750006F2A73D0702A04D197E0752A6FD0782A27
:103760006ED01046DDE90F129047761C4CE1C4F391
:103770000250022806D0032809D0042801CF09D01E
:10378000066041E101CFF117C0E900613CE101CFE2
:10379000068039E1067037E117F8040B8DF8000058
:1037A00000208DF80100EB46012003E057F804BB30
:1037B0004FF0FF3061074FF0000102D40DE008F137
:1037C0000101884649450FDA8045F8DB1BF80810EF
:1037D0000029F4D108E008F1010188468142FADBB2
:1037E0001BF808100029F6D1DDE90F23AAEB080029
:1037F0008146214600F032F9304400EB080604E02F
:10380000DDE90F121BF8010B9047B8F10108F7D260
:1038100021464846F3E00A21C4F302534FF0000B5F
:103820000891022B04D001CFC117032B09D00AE065
:10383000FF1D27F00707F7E8020108E02EE01DE072
:103840001EE000B2C117042B01D140B2C1170029FC
:1038500007DA4FF0000CD0EB0C006CEB01012D23CC
:1038600002E0230504D52B238DF82430012303E047
:10387000E30701D02023F7E7984656E00A210EE03F
:1038800010204FF0000B08900CE010214FF0000BBF
:1038900044F004044FF00809089103E008214FF0B8
:1038A000000B0891C4F30253022B04D001CF002176
:1038B000032B06D006E0FF1D27F00707F7E80201FB
:1038C00003E080B2042B00D1C0B24FF00008230700
:1038D0002BD5702A07D0DDF820C08CF0100C5CEAE4
:1038E0000B0C05D00EE040238DF82430012308E0B6
:1038F00050EA010306D030238DF824308DF82520BE
:1039000002239846DDF820C08CF0080C5CEA0B0C12
:103910000BD150EA010301D1630706D530238DF89E
:1039200024304FF00108A9F10109582A04D038A227
:103930000B9208AA0A920BE03AA2F9E75B46089AB2
:10394000FCF7FCFE0B9B9B5C0A9A521E0A921370BA
:1039500050EA0102F2D10A98ADEB000000F1200B11
:10396000600702D524F4803401E04FF00109D94505
:1039700002DDA9EB0B0000E0002000EB0B0141444D
:103980000890AAEB010AE00306D4DDE90F232146E3
:10399000504600F063F806444FF0000908E009A91A
:1039A00011F80900DDE90F12904709F10109761CB1
:1039B000C145F4DBE0030CD5DDE90F232146504679
:1039C00000F04CF8064404E0DDE90F123020904787
:1039D000761C0899481E08900029F5DC08E00A9832
:1039E0000A990078491C0A91DDE90F129047761C6C
:1039F000BBF10001ABF1010BF1DC21465046DDE9E2
:103A00000F2300F019F806446D1C1FE60928010079
:103A10003031323334353637383961626364656644
:103A20000000000030313233343536373839414206
:103A300043444546000000002DE9F04104460025BE
:103A40001E461746880404D405E039462020B047B6
:103A50006D1C641EF9D52846BDE8F0812DE9F041C2
:103A6000044600251E469046C80301D5302700E0D5
:103A70002027880404D505E041463846B0476D1C30
:103A8000641EF9D52846BDE8F0810A68531C0B6016
:103A9000107070472DE9F04105460E464FF0FF3893
:103AA000142001F0E7FB044614B94046BDE8F0815C
:103AB000701C01F0DFFB07462FB9204601F0CCFB5C
:103AC0004FF0FF30F2E705B30020206060602672FF
:103AD00032462946384601F0DDFBE760A8782074BD
:103AE0000B48006838B90B4804600948046000209E
:103AF0000949086007E00648006844600448006817
:103B00002060034804604FF000084046CEE7000004
:103B10009C00002098000020A00000202DE9F0412A
:103B200007460D464FF0FF380C2001F0A3FB04467A
:103B300014B94046BDE8F081284601F09BFB0646DB
:103B40002EB9204601F088FB4FF0FF30F2E701204C
:103B50000F490870BFB100202060A5802A46394671
:103B6000304601F097FBA6600A48006820B90A4871
:103B700004600848046004E00648006804600548E2
:103B800004604FF000080020014908704046D1E76A
:103B9000A500002084000020800000202DE9F041D5
:103BA00007460E464FF0FF380C2001F063FB044639
:103BB00014B94046BDE8F081301D01F05BFB0546BD
:103BC0002DB9204601F048FB4FF0FF30F2E701200D
:103BD00012490870ECB1E5B100202060B01CA08053
:103BE00032463946284601F055FB0A20A855A91946
:103BF0004870A5600A48006820B90A48046008486F
:103C0000046004E0064800680460054804604FF062
:103C100000080020014908704046CBE7A4000020BE
:103C20007C000020780000202DE9F04707460D4673
:103C300090464FF0FF39102001F01CFB044614B9E8
:103C40004846BDE8F087284601F014FB06462EB929
:103C5000204601F001FB4FF0FF30F2E7DFB100201A
:103C600020602581A4F80680207160712A463946BB
:103C7000304601F00FFBE6600848006820B90848AC
:103C800004600648046004E00448006804600348D7
:103C900004604FF000094846D3E700008C00002084
:103CA00088000020302805DB392803DCA0F1300132
:103CB000C8B210E0412805DB462803DCA0F137013B
:103CC000C8B208E0612805DB662803DCA0F15701D3
:103CD000C8B200E0FF20704770B505460E46AC68DC
:103CE00006B970BD0CB9AE6009E000E0246814B1FB
:103CF00020680028FAD13146204606F087FD00BF33
:103D0000EFE7000070B506460D46144604B970BDD5
:103D1000A06918B10649A06909688847284600F0DB
:103D2000FBF8A06121463046FFF7D6FF00BFEEE763
:103D30001400002010B500F077F804460CB10520FF
:103D4000E060204610BD70B505460E4600F06CF8E8
:103D5000044634B10320E06028463146FCF78CFC71
:103D60006061204670BD10B500F05EF804460CB1ED
:103D70000620E060204610BD70B5054600F054F8FE
:103D800004462CB10420E060284600F0C5F820610C
:103D9000204670BD70B504461EE02568A08900F479
:103DA000807020B9A06810B1A068FFF7F3FFA08968
:103DB00000F4807028B9206918B1094920690968A0
:103DC0008847A06918B10649A06909688847204654
:103DD0000349096888472C46002CDED170BD0000DD
:103DE000140000200246906801E0491E006808B1F6
:103DF0000029FADC704701468A68002001E0401C77
:103E00001268002AFBD1704770B505460E46AC68B3
:103E100000E024682CB13146A06900F057F8002872
:103E2000F7D1204670BD000010B51C200549096877
:103E3000884704461CB11C212046FCF7B4F92046F3
:103E400010BD00001000002010B5044600221146ED
:103E5000204600F001F810BD2DE9F04780460D46E0
:103E600016460024FFF7E0FF0746002012490860CD
:103E70000FB9BDE8F087404604F083F98146494612
:103E8000384601F08FFC044624B93846FFF782FF1C
:103E90000020EEE766B1204604F073F9044620786E
:103EA00030B13846FFF776FF034804600020E0E7B2
:103EB00005B12C603846DCE70C00002010B5044644
:103EC00000221146204601F0E5FF10BD70B5044602
:103ED0000D462CB9AC4201D0012070BD0020FCE79A
:103EE0000DB90120F9E705E0207808B90020F4E7D2
:103EF000641C6D1C2078FCF737F906462878FCF71F
:103F000033F98642F0D02078FCF72EF9064628785F
:103F1000FCF72AF9301AE0E770B504462046FCF7B2
:103F200057F9451C2846064909688847060000D10C
:103F300070BD2A4621463046FCF71CF93046F7E7AB
:103F400010000020002004E00021034A1154411C0D
:103F5000C8B26428F8DB7047C4A000202DE9F04700
:103F600081464846FFF770FF8046B8F1000F78D0D1
:103F7000494801684046FFF747FF044634B12069CD
:103F800020B108224548216901F084F944A1404646
:103F9000FFF73AFF044614B140496069C86042A186
:103FA0004046FFF731FF06462EB3F068052822D1C0
:103FB0003046FFF720FF0546384981F84C50D5B10F
:103FC000002716E039463046FFF70CFF04467CB167
:103FD000206968B12069FCF7FBF8824607EB4703CC
:103FE0002E4A103202EB43005246216901F052F989
:103FF0007F1CAF42E6DB2EA14046FFF705FF0646D9
:104000001EB32DA13046FFF7FFFE044614B123492D
:104010006069486529A13046FFF7F6FE044614B1F1
:104020001E486169816528A13046FFF7EDFE044610
:1040300014B11A486169C16524A13046FFF7E4FE56
:10404000044614B115496069486522A14046FFF74E
:10405000DBFE04464CB16069A84203D00F480565F9
:1040600003E017E00D49606908651CA14046FFF7B1
:10407000CBFE044614B109496069486619A140465F
:10408000FFF7C2FE044614B10449606988664046E1
:10409000FFF780FEBDE8F08728010020149500207E
:1040A0006D6F646500000000636F6C6F720000004C
:1040B00074696D6500000000696E000064757261CE
:1040C00074696F6E000000006F757400626C616E41
:1040D0006B00000064656E736974790073706565C8
:1040E00064000000646973706C61790010B5044667
:1040F000207C3038E17B303901EB810100EB41005D
:1041000016490870A07C4870E17C144881704078A2
:10411000412803D1114880784C2807D00F484078B7
:1041200043280FD10D48807853280BD10C480078D4
:1041300020F0200020300A4908704FF4001005F0EC
:10414000A5FF0AE00648007820F02000203004494E
:1041500008704FF4001005F099FF10BD32000020E8
:10416000380000202DE9F04180464046FFF76CFE04
:104170000746002F58D0002405E0002600E0761CFA
:104180000F2EFCDB641C052CF7DB002405E0002669
:1041900000E0761C0F2EFCDB641C052CF7DB0024F2
:1041A0001AE004EBC401214800EB4110007990B9FA
:1041B00004EBC4021D4800EB4210011D3846FFF716
:1041C00023FE05463DB1A88A81B204EBC40217481C
:1041D00000EB42104180641C052CE2DB00241AE055
:1041E00004EB8401124800EBC100007990B904EBA4
:1041F00084020F4800EBC200011D3846FFF704FEA1
:1042000005463DB1A88A81B204EB8402084800EB60
:10421000C2004180641C142CE2DB3846FFF7BAFD73
:104220004FF4001005F032FFBDE8F081508C002003
:10423000F09100202DE9F04780464046FFF704FE4C
:104240000746002F7DD0A4A13846FFF7DDFD0546C7
:10425000ADB1A3A12846FFF7D7FD044614B1A2498A
:1042600060690860A1A12846FFF7CEFD044634B17D
:104270009D4960694860084600799E4908709EA182
:104280003846FFF7C1FD05461DB39DA12846FFF73F
:10429000BBFD04465CB1206948B12069FBF798FF7B
:1042A00081464A4690480830216900F0F3FF96A104
:1042B0002846FFF7A9FD04465CB1206948B1206992
:1042C000FBF786FF81464A4687486C30216900F03B
:1042D000E1FF8FA13846FFF797FD04461CB18249E4
:1042E0006069C1F8A0008CA13846FFF78DFD054636
:1042F000002D37D08BA12846FFF786FD04465CB120
:10430000206948B12069FBF763FF81464A46764839
:10431000A430216900F0BEFF84A12846FFF774FD98
:1043200004465CB1206948B12069FBF751FF814622
:104330004A466D48B830216900F0ACFF7DA128469F
:1043400000E0C7E0FFF760FD04465CB1206948B1BA
:104350002069FBF73DFF81464A466348CC3021691E
:1043600000F098FF75A13846FFF74EFD0546002D79
:104370007ED074A12846FFF747FD064616B374A108
:104380003046FFF741FD04465CB1206948B1206921
:10439000FBF71EFF81464A465348FE30216900F074
:1043A00079FF6DA13046FFF72FFD044654B1206917
:1043B00040B12069FBF70CFF81464A4668482169F5
:1043C00000F068FF67A12846FFF71EFD0646AEB362
:1043D00067A13046FFF718FD04465CB1206948B17B
:1043E0002069FBF7F5FE81464A465D48243821697D
:1043F00000F050FF5FA13046FFF706FD04465CB1B8
:10440000206948B12069FBF7E3FE81464A465448DB
:104410001A38216900F03EFF57A13046FFF7F4FC3F
:1044200004465CB1206948B12069FBF7D1FE8146A2
:104430004A464B481038216900F02CFF51A128460C
:10444000FFF7E2FC064636B3514801683046FFF7F5
:10445000DBFC04465CB1206948B12069FBF7B8FE7B
:1044600081464A463E48801D216900F013FF00E066
:1044700029E048A13046FFF7C7FC04465CB120693B
:1044800048B12069FBF7A4FE81464A463448103003
:10449000216900F0FFFE40A12846FFF7B5FC064663
:1044A0008EB140A13046FFF7AFFC04465CB12069F5
:1044B00048B12069FBF78CFE81464A4628481A30ED
:1044C000216900F0E7FE3846FFF764FC4FF4001066
:1044D00005F0DCFDBDE8F08773797374656D00004D
:1044E0004850535400000000949500205245465215
:1044F000000000006200002077696669000000008B
:104500007373696400000000706173737764000066
:1045100074696D65000000006C6F636174696F6E93
:10452000000000006369747900000000636F756E1D
:1045300074727900726567696F6E000077656174E7
:1045400068657200617374726F6E6F6D7900000040
:1045500073756E726973650073756E7365740000B0
:104560009896002061746D6F7370686572650000C5
:10457000484D0000505200007669736962696C69A9
:1045800074790000636F6E646974696F6E00000077
:10459000FC000020545000006169727175616C6903
:1045A00074790000696E6465780000002DE9F05FA1
:1045B0008046894698F80CA04846FFF745FC05461A
:1045C000BAF16C0F7ED0BAF1730F06D0BAF1740F46
:1045D00079D0BAF1770F77D116E0A5B1ACA1284612
:1045E000FFF712FC044614B1AB4960690860ABA147
:1045F0002846FFF709FC044614B1A74960694860E2
:104600002846FFF7C7FB3BE198F80C00692829D141
:10461000002D26D0A3A12846FFF7F6FB04465CB187
:10462000206948B12069FBF7D3FD83465A469A4872
:104630000830216900F02EFE9CA12846FFF7E4FB1C
:1046400004465CB1206948B12069FBF7C1FD83468F
:104650005A4691486C30216900F01CFE2846FFF74D
:1046600099FBBAE0002DFCD092A12846FFF7CCFBC5
:104670000746002F7ED091A13846FFF7C5FB0646BE
:10468000002E39D090A13046FFF7BEFB04465CB146
:10469000206948B12069FBF79BFD83465A467E4856
:1046A000E030216900F0F6FD88A13046FFF7ACFB51
:1046B00004467CB1206968B12069FBF789FD834617
:1046C0005A4602E099E089E0D9E07348EA3021696E
:1046D00000F0E0FD7EA13046FFF796FB04465CB19A
:1046E000206948B12069FBF773FD83465A466A4842
:1046F000F430216900F0CEFD78A13846FFF784FB45
:10470000064616B378A13046FFF77EFB04465CB13F
:10471000206948B12069FBF75BFD83465A465E4835
:10472000FE30216900F0B6FD71A13046FFF76CFB49
:10473000044654B1206940B12069FBF749FD834626
:104740005A466D48216900F0A5FD6CA13846FFF777
:104750005BFB064636B36C4801683046FFF754FBF6
:1047600004466CB1206958B12069FBF731FD8346DE
:104770005A4600E02EE06048801D216900F08AFD65
:1047800062A13046FFF740FB04465CB1206948B1A6
:104790002069FBF71DFD83465A46574810302169B2
:1047A00000F078FD5AA13846FFF72EFB06468EB181
:1047B0005AA13046FFF728FB04465CB1206948B196
:1047C0002069FBF705FD83465A464B481A3021699C
:1047D00000F060FD2846FFF7DDFA51E065B151A118
:1047E0002846FFF711FB04461CB12B496069C1F84C
:1047F000A0002846FFF7CEFA42E0002D3ED04BA1A4
:104800002846FFF701FB0746AFB34BA13846FFF739
:10481000FBFA04465CB1206948B12069FBF7D8FC7B
:1048200083465A4634486038216900F033FD44A17C
:104830003846FFF7E9FA04465CB1206948B12069BF
:10484000FBF7C6FC83465A462B484C38216900F0DA
:1048500021FD3DA13846FFF7D7FA04465CB1206937
:1048600048B12069FBF7B4FC83465A4622483838E1
:10487000216900F00FFD2846FFF78CFA00E000BF29
:1048800000BF4FF4001005F001FCBDE8F09F0000F0
:10489000485053540000000094950020484546526B
:1048A000000000007373696400000000706173779A
:1048B00064000000776561746865720061746D6FF3
:1048C0007370686572650000484D0000505200002A
:1048D0007669736962696C697479000061737472D6
:1048E0006F6E6F6D7900000073756E72697365008D
:1048F00073756E736574000098960020636F6E6424
:104900006974696F6E000000FC00002054500000C4
:104910006169727175616C6974790000696E6465B2
:104920007800000074696D65000000006C6F6361C1
:1049300074696F6E00000000636974790000000004
:10494000636F756E74727900726567696F6E0000CF
:10495000002132E000BF00BF00BF00BF00BF00BFAA
:1049600000BF00BF00BF00BF00BF00BF00BF00BF4F
:1049700000BF00BF00BF00BF00BF00BF00BF00BF3F
:1049800000BF00BF00BF00BF00BF00BF00BF00BF2F
:1049900000BF00BF00BF00BF00BF00BF00BF00BF1F
:1049A00000BF00BF00BF00BF00BF00BF00BF00BF0F
:1049B00000BF00BF00BF00BF491C8142CADB704777
:1049C00010B56FF00400FDF7B9FD0A4800680A4908
:1049D000B0FBF1F0094908700846007800EB40018F
:1049E000C1EBC0104FF6FF7101EAC0000449088016
:1049F00010BD00005C01002000127A0000000020C1
:104A00000200002070B50446206868B1656825B1D1
:104A1000206845602068286013E00F49206808601E
:104A20000020096848600CE00C496068086008468E
:104A3000006818B100200968086002E000200649FB
:104A40000860E06810B1E06800F006FC204600F065
:104A500003FC002070BD00009C0000209800002096
:104A600070B54FF0FF351748006848B31548006827
:104A7000006890B913480068806820B1114909683E
:104A8000886800F0E9FB0F48006800F0E5FB0020B3
:104A90000C4908600C49086011E00A480068046885
:104AA00008480068806820B106490968886800F0F5
:104AB000D3FB0448006800F0CFFB024804600025E7
:104AC000284670BD800000208400002070B54FF0A3
:104AD000FF351748006848B315480068006890B96A
:104AE00013480068806820B111490968886800F09F
:104AF000B3FB0F48006800F0AFFB00200C490860D2
:104B00000C49086011E00A48006804680848006819
:104B1000806820B106490968886800F09DFB044858
:104B2000006800F099FB024804600025284670BD2B
:104B3000780000207C00002070B54FF0FF3517484A
:104B4000006848B315480068006890B913480068C9
:104B5000C06820B111490968C86800F07DFB0F48A2
:104B6000006800F079FB00200C4908600C490860DF
:104B700011E00A480068046808480068C06820B16D
:104B800006490968C86800F067FB0448006800F03F
:104B900063FB024804600025284670BD88000020A1
:104BA0008C00002030B502460B46FF20012A15D1AB
:104BB00000210AE001EB8105144C04EBC504648874
:104BC0009C4200D103E04C1CE1B21429F2DB00BF8F
:104BD000142901D1FF2400E00C462046AAB9002187
:104BE0000AE001EBC1050A4C04EB451464889C42C1
:104BF00000D103E04C1CE1B20529F2DB00BF05291E
:104C000001D1FF2400E00C46204630BDF091002089
:104C1000508C00202DE9F04705460E461746984671
:104C20004FF0FF09002D50D1012E27D100240AE0BA
:104C300004EB8401444800EBC1004088B84200D135
:104C400003E0601CC4B2142CF2DB00BF142C0ED1A4
:104C5000002409E004EB84013B4800EBC1004088DC
:104C600000B903E0601CC4B2142CF3DB00BF142CA9
:104C700001D1FF2000E02046814626E000240AE022
:104C800004EBC401314800EB41104088B84200D128
:104C900003E0601CC4B2052CF2DB00BF052C0ED172
:104CA000002409E004EBC401284800EB41104088CF
:104CB00000B903E0601CC4B2052CF3DB00BF052C77
:104CC00001D1FF2000E020468146012D39D116B1E7
:104CD000012E32D118E000240CE004EBC4021B4981
:104CE00001EB4211081D4146FBF779FA00B903E0D8
:104CF000601CC4B2052CF0DB00BF052C01D1FF20E5
:104D000000E0204681461BE000240CE004EB840216
:104D10000D4901EBC201081D4146FBF760FA00B9DD
:104D200003E0601CC4B2142CF0DB00BF142C01D1D2
:104D3000FF2000E02046814602E04FF0FF0900BF5F
:104D400000BF4846BDE8F087F0910020508C00205D
:104D500010B5024600201B4B1B78AA2B11D1194B12
:104D60005B78AA2B0DD1174B9B79012B00D100E06A
:104D70000023154C94F82D4A63F34104124B83F839
:104D80002D4A104B1B78BB2B1BD10E4B5B78BB2BDA
:104D900017D1931E0B4CE35C0A2B12D1531EE35C1C
:104DA0000A2B0ED1931E98B2002105E0054B5B5CE7
:104DB000064C63544B1C99B28142F7DB0023034C31
:104DC000235410BD70780020E48A0020249B00202A
:104DD00010B50A460346C41700EB1474C4F3071158
:104DE000092903DC01F13003137002E001F13703FC
:104DF00013700346C41700EB14742411A0EB0414C1
:104E0000E1B2092903DC01F13003537002E001F142
:104E10003703537010BD01460F2901DD0020704794
:104E2000092903DD01F13700C0B2F8E701F13000D4
:104E3000C0B2F4E706480078401C054908700846EF
:104E40000078802801DB0120087001480078704755
:104E5000450100202DE9FF5F4FF0000955A00390A8
:104E60000025FEF780FF8246BAF1000F7ED0FEF7E4
:104E70007AFF064646B35048FEF77EFF83465A4601
:104E80004EA13046FEF73EFF4EA0FEF775FF83466B
:104E90005A464D4801683046FEF734FF4B4991F8B9
:104EA0008003FBF7C3FBCDE90001FEF74CFF83460F
:104EB0005A46474801683046FEF724FF32464548C7
:104EC00001685046FEF71EFF404890F88003012815
:104ED0004FD1FEF748FF0746002F4AD00020014679
:104EE000FEF731FF83465A46374801683846FEF7D9
:104EF00009FFFEF71FFF8046B8F1000F32D033489C
:104F00004088401F85B2002D27DD284605EBD07173
:104F10004910A5EB410101BB05EBD071C1F34F0571
:104F2000002418E0082101EB44022B498A5C072188
:104F300001EB44032849C95C02EB0120FBF765FB48
:104F4000CDE90001FEF7FFFE834659464046FEF7D5
:104F5000C3FE601C84B2AC42E4DB42461FA138466B
:104F6000FEF7D0FE3A4617A1504600E020E0FEF7DB
:104F7000C9FE5046FEF7A2FF8146B9F1000F14D0DA
:104F800004F020FD83460020CDE900B0CDF8089064
:104F9000032201214320039B05F058F900F044F956
:104FA0000F490870484600F057F95046FEF7F2FEE8
:104FB000BDE8FF9F2F727400E68A002053455049D8
:104FC00044000000495200001801002036A20020D1
:104FD0001C0100202C010020B0A500207261770088
:104FE000440100202DE9FF5F04460E460FF2D00970
:104FF0004FF0830AFEF7B7FE03902046FBF705FB50
:105000000746FEF7A0FE83465A462E4801680398DD
:10501000FEF778FEB4F5001F0AD12B480068FEF7B2
:10502000ABFE07463A46294801680398FEF76AFE38
:10503000274884420CD127480068FEF79DFE0746AA
:105040003A46224801680398FEF75CFE4FF0850A55
:10505000B4F5800F0CD120480068FEF78DFE07469E
:105060003A461A4801680398FEF74CFE4FF0850A4D
:105070001A4884420CD11A480068FEF77DFE0746A4
:105080003A46124801680398FEF73CFE4FF0850A45
:105090000398FEF713FF054665B100204B46024614
:1050A0000121CDE900600295504605F0CFF8284671
:1050B00000F0D2F80398FEF76DFEBDE8FF9F0000F8
:1050C00000000000FC000020300100200001002052
:1050D000010020003401002038010020081F40009A
:1050E00040010020FDF75EFBFFF76AFCFCF7CFFDF7
:1050F0004FF4E13005F0F2FB4FF4614005F07AFC2B
:10510000FCF7D2FCFCF794FD05F084FB01F09EFA5D
:1051100005F0CAFB05F0B6FB0FE000F04DFF02F012
:1051200095F8FCF7EFFCFDF769FEFDF7C3FDFDF711
:105130008DFEFDF725FEFDF775FEEEE770B5054621
:105140000F48007C20B90E4908688047012070BDD7
:10515000B5F5E04F11D269090948C06830F811204F
:10516000002406E00020064BDB680E1923F8160029
:10517000641C9442F6DB0020E9E70220E7E7000028
:105180001800002000B509494FF4E062C86800210A
:1051900000F08DF805494FF4E0428868002100F0E6
:1051A00086F801200149087400BD000018000020A5
:1051B0002DE9F04106460024A0461A48007C10B9AB
:1051C0001849086880471EB94FF0FF30BDE8F081EC
:1051D000C6F34F1506F01F0008B1681C85B240F2F7
:1051E0007F341AE00F48C06830F8140020B908F185
:1051F00001001FFA80F801E04FF00008A8450BD12C
:10520000002705E00748C068E11920F811507F1C0D
:10521000AF42F7D36001D9E7641E002CE2DA4FF009
:10522000FF30D3E7180000200022002106E00948E3
:10523000C06830F8110000B1521C491CB1F5607F04
:10524000F5D3642050434FF46073B0FBF3F0C0B269
:10525000704700001800002070B5044604B970BD06
:1052600003488068251A2846FFF768FF00BFF6E765
:105270001800002070B505462846FFF799FF044640
:10528000601C08B9002070BD014880682044FAE71E
:105290001800002070B503460C4603E014F8015BCB
:1052A00003F8015B1500A2F10102F7D170BD30B522
:1052B000034601E003F8011B1400A2F10102F9D139
:1052C00030BD00002DE9F04705460C4620785B28EC
:1052D00004D0264804600020BDE8F0870520E8607F
:1052E000601C02F04EFF044620785D2801D1601C4E
:1052F000F2E7FEF799FD0646A860A86808B9002005
:10530000EAE7204602F03DFF80464146304600F085
:1053100049FA074602F035FF04460CB90020DBE7E6
:1053200017E0FEF781FD070000D1D5E737607E600A
:105330003E46601C02F025FF81464946304600F09B
:1053400031FA804602F01DFF04460CB90020C3E785
:1053500000BF20782C28E4D020785D2801D1601C83
:10536000BAE7024804600020B6E700000C00002005
:10537000014600220878302806DB0878392803DC4B
:1053800008783038024415E00878412806DB0878B0
:10539000462803DC0878373802440BE00878612897
:1053A00006DB0878662803DC08785738024401E0F9
:1053B000002070471201491C0878302806DB087865
:1053C000392803DC08783038024415E00878412891
:1053D00006DB0878462803DC0878373802440BE0FF
:1053E0000878612806DB0878662803DC08785738D7
:1053F000024401E00020DCE71201491C0878302853
:1054000006DB0878392803DC08783038024415E0D8
:105410000878412806DB0878462803DC0878373806
:1054200002440BE00878612806DB0878662803DC74
:1054300008785738024401E00020BAE71201491CFD
:105440000878302806DB0878392803DC08783038FB
:10545000024415E00878412806DB0878462803DC7A
:105460000878373802440BE00878612806DB0878B2
:10547000662803DC08785738024401E0002098E7EA
:10548000104696E710B5024600230878302800D170
:10549000491C0878312810DB087839280DDC00BF5A
:1054A00011F8010B303803EB830400EB4403087858
:1054B000302802DB08783928F2DD53610320D06000
:1054C000084610BD2DE9F04706460C4620787B289B
:1054D00004D0404804600020BDE8F0870620F0605A
:1054E000601C02F04EFE044620787D2801D1601C2D
:1054F000F2E7FEF799FC0546B060B06808B90020F5
:10550000EAE7204602F03DFE80464146284600F08C
:1055100063F8074602F035FE04460CB90020DBE7CD
:105520002869A8610020286120783A2803D02948FA
:1055300004600020D0E7601C02F023FE8046414654
:10554000284600F02FF9074602F01BFE04460CB96E
:105550000020C1E731E0FEF767FC070000D1BBE7A0
:105560002F607D603D46601C02F00BFE814649467F
:10557000284600F031F8804602F003FE04460CB9DC
:105580000020A9E72869A8610020286120783A282E
:1055900003D01048046000209EE7601C02F0F1FD7B
:1055A00081464946284600F0FDF8804602F0E9FDB4
:1055B00004460CB900208FE700BF20782C28CAD001
:1055C00020787D2801D1601C86E702480460002015
:1055D00082E700000C0000202DE9F05F834688463A
:1055E00008F10104002798F80000222805D06A4835
:1055F000C0F800800020BDE8F09F04E014F8011B13
:105600005C2900D1641C2078222804D0207810B1B5
:10561000781C0700F2D1781C6049096888478146E8
:10562000B9F1000F01D10020E5E708F101044D4672
:105630009EE020785C2804D014F8010B05F8010BDB
:1056400096E0641C2078722818D006DC622809D005
:1056500066280BD06E287DD10CE0742812D07528F6
:10566000F9D113E0082005F8010B7FE00C2005F8C4
:10567000010B7BE00A2005F8010B77E00D2005F80F
:10568000010B73E0092005F8010B6FE0601CFFF7C8
:105690006FFE0646241DB6F55C4F02D3B6F5604F8B
:1056A00000D306B962E0B6F5584F1CD3B6F55C4F8F
:1056B00019D260785C2802D1A078752800D055E016
:1056C000E01CFFF755FE8246A41DBAF55C4F02D3DD
:1056D000BAF5604F00D349E0C6F30901504661F3C3
:1056E0009F2000F580360427802E01D2012708E094
:1056F000B6F5006F01D2022703E0B6F5803F00D275
:1057000003273D44012F20D0022F15D0032F0AD0AC
:10571000042F24D106F0BF0040F08001681E05462A
:105720000170B60900BF06F0BF0040F08001681E9E
:1057300005460170B60900BF06F0BF0040F08001C9
:10574000681E05460170B60900BF1548C05D3043AC
:10575000C1B200E006E0681E0546017000BF00BF50
:105760003D4403E0207805F8010B00BF00BF641C36
:105770002078222803D0207800287FF45AAF002018
:1057800028702078222800D1641CCBF810900420C7
:10579000CBF80C0020462EE70C0000201000002063
:1057A00014AB000870B505460C460CB9002070BD5E
:1057B000042224A12046FAF736FD18B90220E86039
:1057C000201DF4E7052221A12046FAF72CFD18B987
:1057D0000020E860601DEAE704221EA12046FAF7D7
:1057E00022FD20B90120E8606861201DDFE72078F4
:1057F000222804D121462846FFF7EEFED7E720787D
:105800002D2805D02078302807DB2078392804DCC3
:1058100021462846FFF736FEC9E720785B2804D1E9
:1058200021462846FFF74EFDC1E720787B2804D1AA
:1058300021462846FFF746FEB9E7084804600020E5
:10584000B5E700006E756C6C0000000066616C735B
:105850006500000074727565000000000C000020F7
:105860002DE9F047814633480068322856DB32483C
:10587000006814280FDA31480068322190FBF1F0FB
:105880002F492D4A126841F822002B480068401C1D
:105890002949086012E0002407E02949601C51F8FA
:1058A000200041F82400601CC4B2132CF5DB23480F
:1058B0000068322190FBF1F02149C86400201F49A3
:1058C0000860002409E01E4850F824001B490968BC
:1058D00008441A490860601CC4B217480068844232
:1058E000F1DB164800681449096890FBF1F0134990
:1058F00008600968A1F24650FAF787FE0746114A88
:10590000114BFAF70EFE0546FAF7FCFE0F49086147
:105910000020084908600949086009E00748006854
:1059200048440649086003480068401C0149086073
:10593000BDE8F087D8000020DC000020D400002063
:10594000B0A10020A4703D0AD7A30A4028A10020DE
:105950002DE9F74F82B083464FF0000805200190F3
:10596000DBF80890002700250020009002E07F1C53
:10597000D9F80090B9F1000FF9D17FB903204C4953
:10598000096888478046B8F1000F03D049A1404616
:10599000FAF740FC404605B0BDE8F08FB800444936
:1059A0000968884706460EB90020F4E7B90030467A
:1059B000FAF7F9FBDBF808901FE0DDE90312491C58
:1059C000484600F067FA824629466D1C46F821A039
:1059D000BAF1000F0DD05046FAF7FAFB801C04997B
:1059E00009B1012100E0002101440198084401901F
:1059F00001E001200090D9F80090B9F1000F02D029
:105A000000980028D9D0009820B929490198096840
:105A100088478046B8F1000F01D10120009000981E
:105A200090B1002508E056F8250020B156F8250071
:105A30002149096888476D1CBD42F4DB30461E4988
:105A4000096888470020A6E75B2088F8000008F175
:105A500001040020207000251CE056F82510204687
:105A6000FAF7D8FB56F82500FAF7B2FB0444781E83
:105A7000A84209D02C2004F8010B049810B1202072
:105A800004F8010B0020207056F825000A49096827
:105A900088476D1CBD42E0DB3046074909688847EE
:105AA0005D2004F8010B002004F8010B404672E76A
:105AB000100000205B5D00001400002070B504465B
:105AC00000251520074909688847054615212846FD
:105AD000FAF769FB25B104A128466269FDF784FD48
